:100000000C9462000C948A000C948A000C948A0070
:100010000C948A000C948A000C948A000C948A0038
:100020000C948A000C948A000C948A000C948A0028
:100030000C948A000C948A000C948A000C948A0018
:100040000C945F020C948A000C94CF020C94A902C9
:100050000C948A000C948A000C948A000C948A00F8
:100060000C948A000C948A000000000024002700F1
:100070002A000000000023002600290000000000E4
:10008000250028002B0004040404040404040202D4
:100090000202020203030303030301020408102007
:1000A0004080010204081020010204081020000012
:1000B0000008000201000003040700000000000027
:1000C00000005D0411241FBECFEFD8E0DEBFCDBF1E
:1000D00011E0A0E0B1E0E8E6F9E002C005900D9281
:1000E000A635B107D9F721E0A6E5B1E001C01D9220
:1000F000AC3FB207E1F710E0C2E6D0E004C02197C0
:10010000FE010E94AC04C136D107C9F70E94010369
:100110000C94B2040C940000833081F028F48130F8
:1001200099F08230A9F008958730A9F08830C9F09D
:100130008430B1F4809180008F7D03C08091800075
:100140008F7780938000089584B58F7784BD08955C
:1001500084B58F7DFBCF8091B0008F778093B00006
:1001600008958091B0008F7DF9CF1F93CF93DF93D7
:10017000E1EBF0E09491EDE9F0E0D491E9E8F0E012
:10018000C491CC23B9F0182F992319F0892F0E941C
:100190008C00EC2FF0E0EE0FFF1FE458FF4FA5910D
:1001A000B4918FB7F894EC91111108C0D095DE236B
:1001B000DC938FBFDF91CF911F910895DE2BF8CF95
:1001C000CF93DF93282F30E0F901E255FF4F849160
:1001D000F901E656FF4FD491F901EA57FF4FC49158
:1001E000CC23A1F081110E948C00EC2FF0E0EE0FE7
:1001F000FF1FEE58FF4FA591B491EC91ED2381E0E4
:1002000090E009F480E0DF91CF91089580E090E0E4
:10021000FACFCF93DF9390E0FC01E656FF4F249195
:100220008A579F4FFC0184918823C9F090E0880F82
:10023000991FFC01E859FF4FA591B491FC01E458C6
:10024000FF4FC591D49161110DC09FB7F8948C9167
:10025000209582238C938881282328839FBFDF9158
:10026000CF910895623051F49FB7F8943C91822F5A
:10027000809583238C93E8812E2BEFCF8FB7F89452
:10028000EC912E2B2C938FBFEACFAF92BF92CF92DF
:10029000DF92EF92FF920F931F93CF93DF936C0146
:1002A0007B018B01040F151FEB015E01AE18BF0827
:1002B000C017D10759F06991D601ED91FC910190D9
:1002C000F081E02DC6010995892B79F7C501DF91F1
:1002D000CF911F910F91FF90EF90DF90CF90BF9043
:1002E000AF900895FC01538D448D252F30E0842F6D
:1002F00090E0821B930B541710F0CF96089501974E
:100300000895FC01918D828D981761F0A28DAE0F3A
:10031000BF2FB11D5D968C91928D9F5F9F73928FC1
:1003200090E008958FEF9FEF0895FC01918D828DED
:10033000981731F0828DE80FF11D858D90E00895BA
:100340008FEF9FEF0895FC01918D228D892F90E012
:10035000805C9F4F821B91098F73992708958FE5C9
:1003600091E00E94A30121E0892B09F420E0822F73
:10037000089580E090E0892B29F00E94AF0181115F
:100380000C9400000895FC01A48DA80FB92FB11D95
:10039000A35ABF4F2C91848D90E001968F739927BB
:1003A000848FA689B7892C93A089B1898C91837099
:1003B00080648C93938D848D981306C00288F38992
:1003C000E02D80818F7D80830895EF92FF920F93BF
:1003D0001F93CF93DF93EC0181E0888F9B8D8C8DF1
:1003E00098131AC0E889F989808185FF15C09FB7E5
:1003F000F894EE89FF896083E889F98980818370A8
:10040000806480839FBF81E090E0DF91CF911F9156
:100410000F91FF90EF900895F62E0B8D10E00F5F77
:100420001F4F0F731127E02E8C8D8E110CC00FB64D
:1004300007FCFACFE889F989808185FFF5CFCE01E5
:100440000E94C301F1CFEB8DEC0FFD2FF11DE35A9C
:10045000FF4FF0829FB7F8940B8FEA89FB89808168
:100460008062CFCFCF93DF93EC01888D8823B9F0E2
:10047000AA89BB89E889F9898C9185FD03C08081AF
:1004800086FD0DC00FB607FCF7CF8C9185FFF2CF2C
:10049000808185FFEDCFCE010E94C301E9CFDF91BE
:1004A000CF910895FC0101900020E9F73197AF0149
:1004B000481B590BBC018FE591E00C9445011F923C
:1004C0000F920FB60F9211242F933F938F939F9308
:1004D000AF93BF9380915B0190915C01A0915D010E
:1004E000B0915E0130915A0123E0230F2D3758F56A
:1004F0000196A11DB11D20935A0180935B01909339
:100500005C01A0935D01B0935E01809156019091D2
:100510005701A0915801B09159010196A11DB11D3B
:100520008093560190935701A0935801B0935901BD
:10053000BF91AF919F918F913F912F910F900FBEDF
:100540000F901F90189526E8230F0296A11DB11D4C
:10055000D2CF1F920F920FB60F9211242F933F9379
:100560004F935F936F937F938F939F93AF93BF93BB
:10057000EF93FF938FE591E00E94C301FF91EF910C
:10058000BF91AF919F918F917F916F915F914F91AB
:100590003F912F910F900FBE0F901F9018951F92B3
:1005A0000F920FB60F9211242F938F939F93EF9377
:1005B000FF93E0916F01F09170018081E0917501EE
:1005C000F091760182FD1BC09081809178018F5F50
:1005D0008F7320917901821741F0E0917801F0E06A
:1005E000E15AFE4F958F80937801FF91EF919F9193
:1005F0008F912F910F900FBE0F901F9018958081B3
:10060000F4CFCF93DF93CDB7DEB7A1970FB6F894B1
:10061000DEBF0FBECDBF789484B5826084BD84B543
:10062000816084BD85B5826085BD85B5816085BDED
:1006300080916E00816080936E00109281008091A5
:10064000810082608093810080918100816080932D
:100650008100809180008160809380008091B10052
:1006600084608093B1008091B00081608093B0007D
:1006700080917A00846080937A0080917A00826011
:1006800080937A0080917A00816080937A008091D3
:100690007A00806880937A001092C100E0916F0127
:1006A000F091700182E08083E0916B01F0916C0128
:1006B0001082E0916D01F0916E018FEC80831092B9
:1006C0007701E0917301F091740186E08083E091FD
:1006D0007101F0917201808180618083E0917101EC
:1006E000F0917201808188608083E0917101F091C6
:1006F0007201808180688083E0917101F0917201C4
:1007000080818F7D808362E088E00E94090161E042
:1007100083E00E94090160E08EE00E94090162E02E
:1007200082E00E9409019AE0492E512C612C712C23
:1007300022242394312C30E0832E30E0932E88E065
:100740000E94E0005C0182E00E94E000892B09F435
:1007500068C080E480937C0080917A0080648093FC
:100760007A0080917A0086FDFCCFE0907800F090CE
:100770007900F7FE03C093E0E90EF11CF594E794CD
:10078000F594E794970150E040E019A28E010F5DC7
:100790001F4FCA01B901A30192010E948A04605D42
:1007A000F80162938F01211531054105510589F743
:1007B000309719F0CF010E94520280E391E00E942D
:1007C0005202AB2821F4C1018C199D096C01EC9CEB
:1007D0008001ED9C100DFC9C100D112461E083E064
:1007E0000E9409010115110509F580E00E94B5007C
:1007F00083E391E0C114D10411F482E491E00E94FA
:10080000520280E391E00E9452028114910409F4A3
:1008100096CF0E94AF01882309F491CF0E94000077
:100820008ECF82E191E00E945202ACCF0F3F1105C2
:1008300011F481E0DBCFE1EBF0E08491833019F13A
:1008400040F48130B1F08230C9F0003811058CF7E6
:10085000CCCF873011F1883041F18430B1F78091ED
:10086000800080628093800010938B0000938A0048
:10087000BFCF84B5806884BD07BDBACF84B5806220
:1008800084BD08BDB5CF80918000806880938000D2
:100890001093890000938800ABCF8091B0008068EE
:1008A0008093B0000093B300A3CF8091B00080622A
:1008B0008093B0000093B4009BCFEFE5F1E013828A
:1008C000128288EE93E0A0E0B0E084839583A68353
:1008D000B78384E091E09183808385EC90E09587F5
:1008E000848784EC90E09787868780EC90E0918BFA
:1008F000808B81EC90E0938B828B82EC90E0958BE7
:10090000848B86EC90E0978B868B118E128E138EE3
:10091000148E0895A1E21A2EAA1BBB1BFD010DC067
:10092000AA1FBB1FEE1FFF1FA217B307E407F5079F
:1009300020F0A21BB30BE40BF50B661F771F881F7B
:10094000991F1A9469F760957095809590959B0111
:10095000AC01BD01CF010895EE0FFF1F0590F4918A
:08096000E02D0994F894FFCF8B
:1009680000000000E501450172013202A301810186
:1009780095014272696768746E6573732063686174
:100988006E6765206E6F742061766169626C6500C0
:100998000D0A00427574746F6E207072657373650A
:1009A8006400427574746F6E206E6F742070726587
:0609B8007373656400008A
:00000001FF
