:100000000C9462000C948A000C948A000C948A0070
:100010000C948A000C948A000C948A000C948A0038
:100020000C948A000C948A000C948A000C948A0028
:100030000C948A000C948A000C948A000C948A0018
:100040000C94CF010C948A000C943F020C9419027A
:100050000C948A000C948A000C948A000C948A00F8
:100060000C948A000C948A000000000024002700F1
:100070002A000000000023002600290000000000E4
:10008000250028002B0004040404040404040202D4
:100090000202020203030303030301020408102007
:1000A0004080010204081020010204081020000012
:1000B0000008000201000003040700000000000027
:1000C00000008F0311241FBECFEFD8E0DEBFCDBFED
:1000D00011E0A0E0B1E0E8E8F7E002C005900D9281
:1000E000A833B107D9F721E0A8E3B1E001C01D9220
:1000F000AE3DB207E1F710E0C2E6D0E004C02197C0
:10010000FE010E94BC03C136D107C9F70E947102EB
:100110000C94C2030C940000833081F028F48130E9
:1001200099F08230A9F008958730A9F08830C9F09D
:100130008430B1F4809180008F7D03C08091800075
:100140008F7780938000089584B58F7784BD08955C
:1001500084B58F7DFBCF8091B0008F778093B00006
:1001600008958091B0008F7DF9CFAF92BF92CF926A
:10017000DF92EF92FF920F931F93CF93DF936C0167
:100180007B018B01040F151FEB015E01AE18BF0848
:10019000C017D10759F06991D601ED91FC910190FA
:1001A000F081E02DC6010995892B79F7C501DF9112
:1001B000CF911F910F91FF90EF90DF90CF90BF9064
:1001C000AF900895FC01538D448D252F30E0842F8E
:1001D00090E0821B930B541710F0CF96089501976F
:1001E0000895FC01918D828D981761F0A28DAE0F5C
:1001F000BF2FB11D5D968C91928D9F5F9F73928FE3
:1002000090E008958FEF9FEF0895FC01918D828D0E
:10021000981731F0828DE80FF11D858D90E00895DB
:100220008FEF9FEF0895FC01918D228D892F90E033
:10023000805C9F4F821B91098F739927089581E4F9
:1002400091E00E94130121E0892B09F420E0822F24
:10025000089580E090E0892B29F00E941F01811110
:100260000C9400000895FC01A48DA80FB92FB11DB6
:10027000A35ABF4F2C91848D90E001968F739927DC
:10028000848FA689B7892C93A089B1898C918370BA
:1002900080648C93938D848D981306C00288F389B3
:1002A000E02D80818F7D80830895EF92FF920F93E0
:1002B0001F93CF93DF93EC0181E0888F9B8D8C8D12
:1002C00098131AC0E889F989808185FF15C09FB706
:1002D000F894EE89FF896083E889F98980818370C9
:1002E000806480839FBF81E090E0DF91CF911F9178
:1002F0000F91FF90EF900895F62E0B8D10E00F5F99
:100300001F4F0F731127E02E8C8D8E110CC00FB66E
:1003100007FCFACFE889F989808185FFF5CFCE0106
:100320000E943301F1CFEB8DEC0FFD2FF11DE35A4D
:10033000FF4FF0829FB7F8940B8FEA89FB89808189
:100340008062CFCFCF93DF93EC01888D8823B9F003
:10035000AA89BB89E889F9898C9185FD03C08081D0
:1003600086FD0DC00FB607FCF7CF8C9185FFF2CF4D
:10037000808185FFEDCFCE010E943301E9CFDF916F
:10038000CF910895FC0101900020E9F73197AF016A
:10039000481B590BBC0181E491E00C94B5001F92FD
:1003A0000F920FB60F9211242F933F938F939F9329
:1003B000AF93BF9380913D0190913E01A0913F0189
:1003C000B091400130913C0123E0230F2D3758F5C7
:1003D0000196A11DB11D20933C0180933D01909396
:1003E0003E01A0933F01B09340018091380190916C
:1003F0003901A0913A01B0913B010196A11DB11DB7
:100400008093380190933901A0933A01B0933B0156
:10041000BF91AF919F918F913F912F910F900FBE00
:100420000F901F90189526E8230F0296A11DB11D6D
:10043000D2CF1F920F920FB60F9211242F933F939A
:100440004F935F936F937F938F939F93AF93BF93DC
:10045000EF93FF9381E491E00E943301FF91EF91CC
:10046000BF91AF919F918F917F916F915F914F91CC
:100470003F912F910F900FBE0F901F9018951F92D4
:100480000F920FB60F9211242F938F939F93EF9398
:10049000FF93E0915101F09152018081E091570169
:1004A000F091580182FD1BC0908180915A018F5FAD
:1004B0008F7320915B01821741F0E0915A01F0E0C7
:1004C000EF5BFE4F958F80935A01FF91EF919F91C3
:1004D0008F912F910F900FBE0F901F9018958081D4
:1004E000F4CF789484B5826084BD84B5816084BD86
:1004F00085B5826085BD85B5816085BD80916E00C2
:10050000816080936E0010928100809181008260F2
:10051000809381008091810081608093810080912F
:1005200080008160809380008091B100846080931E
:10053000B1008091B00081608093B00080917A001A
:10054000846080937A0080917A00826080937A0040
:1005500080917A00816080937A0080917A0080682F
:1005600080937A001092C100E0915101F091520104
:1005700082E08083E0914D01F0914E011082E09184
:100580004F01F09150018FEC808310925901E0915E
:100590005501F091560186E08083E0915301F0917E
:1005A0005401808180618083E0915301F091540176
:1005B000808188608083E0915301F09154018081B3
:1005C00080688083E0915301F091540180818F7D98
:1005D0008083E7EACE2EE0E0DE2EF6012491F3E9F7
:1005E000AF2EF0E0BF2EF5018491882399F090E0C2
:1005F000880F991FFC01E859FF4FA591B491FC01A8
:10060000E458FF4F859194918FB7F8949C91292BD2
:100610002C938FBF02EA10E0F80124916EE8E62ED9
:1006200060E0F62EF70184918823C1F090E0880FF6
:10063000991FFC01E859FF4FA591B491FC01E458C2
:10064000FF4FC591D4919FB7F8943C91822F80952C
:1006500083238C938881282B28839FBF26EB422EEF
:1006600020E0522E3BEB632E30E0732E40E0842ED0
:1006700040E0942EF2018491F801C491F701D491E5
:10068000DD2309F447C081110E948C00ED2FF0E0BA
:10069000EE0FFF1FEE58FF4FA591B4918C91C82328
:1006A00091E080E009F490E0C92FD82FF301849104
:1006B000F6013490F50124902220A1F081110E94CE
:1006C0008C00E22DF0E0EE0FFF1FE458FF4FA591E4
:1006D000B4918FB7F8949C912097F9F43094392213
:1006E0003C928FBF82E191E0CD2B11F488E291E042
:1006F0000E94C20185E291E00E94C201811491042E
:1007000009F4B8CF0E941F01882309F4B3CF0E94D7
:100710000000B0CFD0E0C0E0C9CF392AE1CFE1E49A
:10072000F1E01382128288EE93E0A0E0B0E08483CF
:100730009583A683B78384E091E09183808385ECE1
:1007400090E09587848784EC90E09787868780EC9B
:1007500090E0918B808B81EC90E0938B828B82EC8C
:1007600090E0958B848B86EC90E0978B868B118E36
:10077000128E138E148E0895EE0FFF1F0590F491C4
:08078000E02D0994F894FFCF6D
:10078800000000005501B500E200A2011301F100CC
:100798000501427574746F6E206E6F7420707265F7
:1007A80073736564000D0A00427574746F6E20706F
:0807B8007265737365640000B3
:00000001FF
