:100000000C9461000C9473000C9473000C947300B6
:100010000C9473000C9473000C9473000C94730094
:100020000C9473000C9473000C9473000C94730084
:100030000C9473000C9473000C9473000C94730074
:100040000C949E000C9473000C9473000C94730039
:100050000C9473000C9473000C9473000C94730054
:100060000C9473000C94730000000000240027001F
:100070002A000000000023002600290000000000E4
:10008000250028002B0004040404040404040202D4
:100090000202020203030303030301020408102007
:1000A0004080010204081020010204081020000012
:1000B0000008000201000003040700000000000027
:1000C000000011241FBECFEFD8E0DEBFCDBF21E07E
:1000D000A0E0B1E001C01D92AD30B207E1F70E948F
:1000E000E8000C94C4010C940000833081F028F4E3
:1000F000813099F08230A9F008958730A9F08830D6
:10010000C9F08430B1F4809180008F7D03C080916C
:1001100080008F7780938000089584B58F7784BDA9
:10012000089584B58F7DFBCF8091B0008F77809349
:10013000B00008958091B0008F7DF9CF1F920F928B
:100140000FB60F9211242F933F938F939F93AF93EA
:10015000BF938091090190910A01A0910B01B09188
:100160000C013091080123E0230F2D3758F501963B
:10017000A11DB11D209308018093090190930A01EC
:10018000A0930B01B0930C018091040190910501A3
:10019000A0910601B09107010196A11DB11D8093A8
:1001A000040190930501A0930601B0930701BF914C
:1001B000AF919F918F913F912F910F900FBE0F9014
:1001C0001F90189526E8230F0296A11DB11DD2CFCE
:1001D000789484B5826084BD84B5816084BD85B522
:1001E000826085BD85B5816085BD80916E0081602E
:1001F00080936E00109281008091810082608093D4
:1002000081008091810081608093810080918000D5
:100210008160809380008091B10084608093B10000
:100220008091B00081608093B00080917A008460FA
:1002300080937A0080917A00826080937A00809126
:100240007A00816080937A0080917A008068809340
:100250007A001092C100C7EAD0E0FE01249103E9C0
:1002600010E0F8018491882399F090E0880F991F9D
:10027000FC01E859FF4FA591B491FC01E458FF4FF0
:10028000859194918FB7F8949C91292B2C938FBFD3
:100290002BEBC22E20E0D22E30E0A32E30E0B32E86
:1002A000F6018491FE01E490F801F490FF2009F436
:1002B00066C081110E947500EF2DF0E0EE0FFF1F68
:1002C000EE58FF4FA591B4918C91E82291E080E027
:1002D00009F490E0E92EF82E2FB7F89480910901E7
:1002E00090910A01A0910B01B0910C012FBF409198
:1002F0000001509101016091020170910301841B82
:10030000950BA60BB70B853F9140A105B10508F4ED
:100310002FC02FB7F8948091090190910A01A09104
:100320000B01B0910C012FBF80930001909301014C
:10033000A0930201B0930301F6018491FE01949011
:10034000F80184908820A1F081110E947500E82DA9
:10035000F0E0EE0FFF1FE458FF4FA591B4918FB767
:10036000F8949C91EF2871F0909499229C928FBF01
:10037000A114B10409F494CF0E94000091CFF12C94
:0C038000E12CAACF992AF2CFF894FFCF0D
:00000001FF
