:100000000C9462000C948A000C948A000C948A0070
:100010000C948A000C948A000C948A000C948A0038
:100020000C948A000C948A000C948A000C948A0028
:100030000C948A000C948A000C948A000C948A0018
:100040000C94C6020C948A000C9436030C94100392
:100050000C948A000C948A000C948A000C948A00F8
:100060000C948A000C948A000000000023002600F3
:10007000290000000000240027002A0000000000E2
:10008000250028002B0004040404040404040202D4
:100090000202020203030303030301020408102007
:1000A0004080010204081020010204081020000012
:1000B0000008000201000003040700000000000027
:1000C0000000BB0411241FBECFEFD8E0DEBFCDBFC0
:1000D00011E0A0E0B1E0E4E2FAE002C005900D9288
:1000E000A431B107D9F721E0A4E1B1E001C01D922C
:1000F000AA3BB207E1F710E0C2E6D0E004C02197C6
:10010000FE010E940A05C136D107C9F70E946803A3
:100110000C9410050C940000833081F028F4813099
:1001200099F08230A9F008958730A9F08830C9F09D
:100130008430B1F4809180008F7D03C08091800075
:100140008F7780938000089584B58F7784BD08955C
:1001500084B58F7DFBCF8091B0008F778093B00006
:1001600008958091B0008F7DF9CF1F93CF93DF93D7
:10017000282F30E0F901E255FF4F8491F901E6564E
:10018000FF4FD491F901EA57FF4FC491CC23A9F056
:10019000162F81110E948C00EC2FF0E0EE0FFF1F54
:1001A000E458FF4FA591B4918FB7F894EC911111D9
:1001B00008C0D095DE23DC938FBFDF91CF911F91D4
:1001C0000895DE2BF8CFCF93DF9390E0FC01E65645
:1001D000FF4F24918A579F4FFC0184918823D1F0CF
:1001E00090E0880F991FFC01EE58FF4FA591B49144
:1001F000FC01E458FF4FC591D491623071F49FB770
:10020000F8943C91822F809583238C93E8812E2B48
:1002100028839FBFDF91CF9108958FB7F894EC9119
:100220002E2B2C938FBFF6CF3FB7F89480911901F6
:1002300090911A01A0911B01B0911C0126B5A89BB9
:1002400005C02F3F19F00196A11DB11D3FBFBA2F68
:10025000A92F982F8827BC01CD01620F711D811D28
:10026000911D42E0660F771F881F991F4A95D1F7AD
:1002700008958F929F92AF92BF92CF92DF92EF92AA
:10028000FF924B015C010E9414016B017C010E94F2
:1002900014016C197D098E099F09683E7340810520
:1002A0009105A8F321E0821A9108A108B10888EE0F
:1002B000C80E83E0D81EE11CF11C81149104A10436
:1002C000B10429F7FF90EF90DF90CF90BF90AF90EF
:1002D0009F908F900895AF92BF92CF92DF92EF924E
:1002E000FF920F931F93CF93DF936C017B018B01E0
:1002F000040F151FEB015E01AE18BF08C017D10730
:1003000059F06991D601ED91FC910190F081E02DB9
:10031000C6010995892B79F7C501DF91CF911F910E
:100320000F91FF90EF90DF90CF90BF90AF90089526
:10033000FC01538D448D252F30E0842F90E0821BEB
:10034000930B541710F0CF96089501970895FC0170
:10035000918D828D981761F0A28DAE0FBF2FB11DC8
:100360005D968C91928D9F5F9F73928F90E0089520
:100370008FEF9FEF0895FC01918D828D981731F0DA
:10038000828DE80FF11D858D90E008958FEF9FEF2E
:100390000895FC01918D228D892F90E0805C9F4F04
:1003A000821B91098F73992708958DE191E00E9436
:1003B000C90121E0892B09F420E0822F089580E013
:1003C00090E0892B29F00E94D50181110C94000046
:1003D0000895FC01A48DA80FB92FB11DA35ABF4FDA
:1003E0002C91848D90E001968F739927848FA68934
:1003F000B7892C93A089B1898C91837080648C9388
:10040000938D848D981306C00288F389E02D808136
:100410008F7D80830895EF92FF920F931F93CF9368
:10042000DF93EC0181E0888F9B8D8C8D98131AC02F
:10043000E889F989808185FF15C09FB7F894EE8916
:10044000FF896083E889F989808183708064808373
:100450009FBF81E090E0DF91CF911F910F91FF90BE
:10046000EF900895F62E0B8D10E00F5F1F4F0F7366
:100470001127E02E8C8D8E110CC00FB607FCFACF21
:10048000E889F989808185FFF5CFCE010E94E901D5
:10049000F1CFEB8DEC0FFD2FF11DE35AFF4FF082F2
:1004A0009FB7F8940B8FEA89FB8980818062CFCF58
:1004B000CF93DF93EC01888D8823B9F0AA89BB899B
:1004C000E889F9898C9185FD03C0808186FD0DC086
:1004D0000FB607FCF7CF8C9185FFF2CF808185FFA7
:1004E000EDCFCE010E94E901E9CFDF91CF910895D0
:1004F0008F929F92AF92BF920F931F93CF93DF93F0
:10050000CDB7DEB7A1970FB6F894DEBF0FBECDBF53
:1005100019A2423008F44AE08E010F5D1F4F842E6D
:10052000912CB12CA12CA50194010E94E804E62F86
:10053000B901CA01EA3044F5E05DD801EE938D01BE
:10054000232B242B252B79F790E080E0109769F07E
:10055000FD0101900020E9F73197AF014A1B5B0BC9
:10056000BD018DE191E00E946B01A1960FB6F89458
:10057000DEBF0FBECDBFDF91CF911F910F91BF9016
:10058000AF909F908F900895E95CD7CF1F920F9204
:100590000FB60F9211242F933F938F939F93AF9396
:1005A000BF938091150190911601A0911701B09110
:1005B00018013091140123E0230F2D3758F50196CF
:1005C000A11DB11D20931401809315019093160174
:1005D000A0931701B09318018091190190911A010D
:1005E000A0911B01B0911C010196A11DB11D80932A
:1005F000190190931A01A0931B01B0931C01BF91A4
:10060000AF919F918F913F912F910F900FBE0F90BF
:100610001F90189526E8230F0296A11DB11DD2CF79
:100620001F920F920FB60F9211242F933F934F9367
:100630005F936F937F938F939F93AF93BF93EF934A
:10064000FF938DE191E00E94E901FF91EF91BF914D
:10065000AF919F918F917F916F915F914F913F915A
:100660002F910F900FBE0F901F9018951F920F9211
:100670000FB60F9211242F938F939F93EF93FF93B5
:10068000E0912D01F0912E018081E0913301F091F4
:10069000340182FD1BC09081809136018F5F8F7382
:1006A00020913701821741F0E0913601F0E0E35EDE
:1006B000FE4F958F80933601FF91EF919F918F911F
:1006C0002F910F900FBE0F901F9018958081F4CF3F
:1006D000789484B5826084BD84B5816084BD85B51D
:1006E000826085BD85B5816085BD80916E00816029
:1006F00080936E00109281008091810082608093CF
:1007000081008091810081608093810080918000D0
:100710008160809380008091B10084608093B100FB
:100720008091B00081608093B00080917A008460F5
:1007300080937A0080917A00826080937A00809121
:100740007A00816080937A0080917A00806880933B
:100750007A001092C10062E086E00E94E30061E04E
:100760008BE00E94E30061E08CE00E94E30061E026
:100770008DE00E94E300E0912D01F0912E0182E0D6
:100780008083E0912901F0912A011082E0912B01F0
:10079000F0912C018FEC808310923501E0913101B2
:1007A000F091320186E08083E0912F01F0913001D9
:1007B000808180618083E0912F01F0913001808100
:1007C00088608083E0912F01F09130018081806802
:1007D0008083E0912F01F091300180818F7D8083B3
:1007E00044EB842E40E0942E00EA10E05CE8E52E15
:1007F00050E0F52E63E0A62EB12C70E0C72E70E01D
:10080000D72EF4018491F801C491F701D491DD232E
:1008100009F4AEC081110E948C00ED2FF0E0EE0FC4
:10082000FF1FE859FF4FA591B4918C91C82391E027
:1008300080E009F490E0C92FD82F61E08BE00E949E
:10084000B500CD2B09F088C04AE065E070E080E09B
:1008500090E00E94780268EE73E080E090E00E94F1
:1008600039014AE064E070E080E090E00E947802A4
:1008700068EE73E080E090E00E943901712CD0E0D6
:10088000C0E055245394672D8BE00E94B500672C7F
:10089000652471100BC0CE0196958795B501681B34
:1008A000790B90E080E04AE00E94780264EF71E00A
:1008B00080E090E00E9439012196762CC630D10567
:1008C00011F760E08BE00E94B50061E08CE00E94CF
:1008D000B50068EE73E080E090E00E94390160E0CE
:1008E0008CE00E94B50061E08DE00E94B5008AE0D6
:1008F000482E512C612C712C4AE0C301B2010E9498
:10090000780268EE73E080E090E00E943901F1E047
:100910004F1A51086108710881E0481651046104BA
:10092000710451F761E08CE00E94B50041E050E0B5
:1009300062E171E08DE191E00E946B0168EE73E08D
:1009400080E090E00E94390160E08CE00E94B500F8
:1009500060E08DE00E94B500C114D10409F451CFCC
:100960000E94D501882309F44CCF0E94000049CF92
:10097000D0E0C0E062CFEDE1F1E01382128288EEB8
:1009800093E0A0E0B0E084839583A683B78384E0FE
:1009900091E09183808385EC90E09587848784EC57
:1009A00090E09787868780EC90E0918B808B81EC3C
:1009B00090E0938B828B82EC90E0958B848B86EC1D
:1009C00090E0978B868B118E128E138E148E089565
:1009D000A1E21A2EAA1BBB1BFD010DC0AA1FBB1F43
:1009E000EE1FFF1FA217B307E407F50720F0A21BB5
:1009F000B30BE40BF50B661F771F881F991F1A9422
:100A000069F760957095809590959B01AC01BD014B
:100A1000CF010895EE0FFF1F0590F491E02D09948A
:040A2000F894FFCF78
:100A2400000000000B026B0198015802C901A701E4
:040A3400BB013100D1
:00000001FF
