:100000000C945C000C946E000C946E000C946E00CA
:100010000C946E000C946E000C946E000C946E00A8
:100020000C946E000C946E000C946E000C946E0098
:100030000C946E000C946E000C946E000C946E0088
:100040000C94C7010C946E000C946E000C946E001E
:100050000C946E000C946E000C946E000C946E0068
:100060000C946E000C946E00000000002400270029
:100070002A0000000000250028002B0004040404CE
:100080000404040402020202020203030303030342
:10009000010204081020408001020408102001021F
:1000A00004081020000000080002010000030407FB
:1000B000000000000000000011241FBECFEFD8E0B8
:1000C000DEBFCDBF21E0A0E0B1E001C01D92A131B3
:1000D000B207E1F70E9411020C943A050C9400005B
:1000E00090E0FC01EC55FF4F2491FC01E057FF4FDD
:1000F0003491FC01E458FF4FE491EE23C9F0222330
:1001000039F0233001F1A8F4213019F1223029F11E
:10011000F0E0EE0FFF1FEE58FF4FA591B4918FB79F
:10012000F894EC91611126C030953E233C938FBF2B
:1001300008952730A9F02830C9F0243049F780917C
:1001400080008F7D03C0809180008F778093800036
:10015000DFCF84B58F7784BDDBCF84B58F7DFBCFB8
:100160008091B0008F778093B000D2CF8091B000A3
:100170008F7DF9CF3E2BDACFCF93DF9390E0FC0158
:10018000E057FF4F249184589F4FFC0184918823AE
:10019000D1F090E0880F991FFC01E859FF4FA5911D
:1001A000B491FC01EE58FF4FC591D49161110EC07E
:1001B0009FB7F8948C91E22FE0958E238C93288141
:1001C000E223E8839FBFDF91CF9108958FB7F89422
:1001D000EC91E22BEC938FBFF6CF1F93CF93DF937D
:1001E000182FEB0161E00E94BC00209739F460E019
:1001F000812FDF91CF911F910C947000CF3FD105DB
:1002000011F461E0F5CFE12FF0E0EC55FF4FE49100
:10021000E33031F140F4E130B1F0E230E1F0C038E8
:10022000D1057CF7E4CFE73029F1E83059F1E4302B
:10023000B1F780918000806280938000D0938B0022
:10024000C0938A0004C084B5806884BDC7BDDF91B7
:10025000CF911F91089584B5806284BDC8BDF7CF4A
:1002600080918000806880938000D0938900C09343
:100270008800EDCF8091B00080688093B000C0937B
:10028000B300E5CF8091B00080628093B000C0934E
:10029000B400DDCFCF92DF92EF92FF926B017C0131
:1002A00020E030E040EF52E40E94460387FF15C093
:1002B00010920001109201011092020110920301AC
:1002C0006091000170910101809102019091030100
:1002D000FF90EF90DF90CF90089520E030E044E36E
:1002E00053E4C701B6010E94460387FF22C020E005
:1002F00030E040EF52E4C701B6010E94D90220E08D
:1003000030E040E752E40E944B0320E030E0A901D6
:100310000E94DA0220E030E04FE753E40E94A50497
:100320006093000170930101809302019093030197
:10033000C7CF20E030E046E953E4C701B6010E9490
:10034000460387FF0DC080E090E0AFE7B3E4809301
:10035000000190930101A0930201B0930301B0CF7B
:1003600020E030E046E953E4C701B6010E94D9021B
:1003700020E030E040E752E40E944B039B01AC01D7
:1003800060E070E080E89FE30E94D902C3CF1F9233
:100390000F920FB60F9211242F933F938F939F9339
:1003A000AF93BF9380910D0190910E01A0910F0129
:1003B000B091100130910C0123E0230F2D3758F537
:1003C0000196A11DB11D20930C0180930D01909306
:1003D0000E01A0930F01B09310018091080190913C
:1003E0000901A0910A01B0910B010196A11DB11D57
:1003F0008093080190930901A0930A01B0930B0127
:10040000BF91AF919F918F913F912F910F900FBE10
:100410000F901F90189526E8230F0296A11DB11D7D
:10042000D2CF789484B5826084BD84B5816084BD68
:1004300085B5826085BD85B5816085BD80916E0082
:10044000816080936E0010928100809181008260B3
:1004500080938100809181008160809381008091F0
:1004600080008160809380008091B10084608093DF
:10047000B1008091B00081608093B00080917A00DB
:10048000846080937A0080917A00826080937A0001
:1004900080917A00816080937A0080917A008068F0
:1004A00080937A001092C10061E08BE00E94BC0052
:1004B00061E08AE00E94BC0061E089E00E94BC002B
:1004C00060E08EE00E94BC0080E4B82EC8E6D1E077
:1004D00000E010E0B0927C0080917A00806480930C
:1004E0007A0080917A0086FDFCCF6091780070914F
:1004F0007900072E000C880B990B0E94F50320E071
:1005000030E04AE754E40E944B0320E030E044EB43
:1005100053E40E94A5046B017C01C0920401D092B7
:100520000501E0920601F092070120E030E040E78B
:1005300053E40E94DA020E94BD03CB01BE010E9477
:100540001205BC01990F880B990B0E94F5030E94BC
:100550004A010E94BD038BE00E94ED0020E030E0E4
:1005600040EF52E4C701B6010E94DA020E94BD03C7
:10057000CB01BE010E941205BC01990F880B990B9B
:100580000E94F5030E944A010E94BD038AE00E9476
:10059000ED00C701B6010E944A010E94BD0389E037
:1005A0000E94ED000115110509F494CF0E9400008E
:1005B00091CF5058BB27AA270E94F1020C946B04DC
:1005C0000E945D0438F00E94640420F039F49F3FDB
:1005D00019F426F40C945A040EF4E095E7FB0C94FD
:1005E0005404E92F0E947C0458F3BA17620773077A
:1005F0008407950720F079F4A6F50C949E040EF478
:10060000E0950B2EBA2FA02D0B01B90190010C0122
:10061000CA01A0011124FF27591B99F0593F50F43A
:10062000503E68F11A16F040A22F232F342F442792
:10063000585FF3CF469537952795A795F04053958A
:10064000C9F77EF41F16BA0B620B730B840BBAF05A
:100650009150A1F0FF0FBB1F661F771F881FC2F7C5
:100660000EC0BA0F621F731F841F48F487957795D9
:100670006795B795F7959E3F08F0B0CF9395880F93
:1006800008F09927EE0F9795879508950E943004FA
:1006900008F481E008950E945F030C946B040E94AB
:1006A000640458F00E945D0440F029F45F3F29F093
:1006B0000C94540451110C949F040C945A040E94FD
:1006C0007C0468F39923B1F3552391F3951B550BE3
:1006D000BB27AA2762177307840738F09F5F5F4F15
:1006E000220F331F441FAA1FA9F335D00E2E3AF054
:1006F000E0E832D091505040E695001CCAF72BD06C
:10070000FE2F29D0660F771F881FBB1F26173707BC
:100710004807AB07B0E809F0BB0B802DBF01FF27EE
:1007200093585F4F3AF09E3F510578F00C94540473
:100730000C949F045F3FE4F3983ED4F3869577953D
:100740006795B795F7959F5FC9F7880F911D9695A7
:10075000879597F90895E1E0660F771F881FBB1F03
:10076000621773078407BA0720F0621B730B840BB0
:10077000BA0BEE1F88F7E09508950E94C4036894B1
:10078000B1110C949F0408950E94840488F09F572F
:1007900098F0B92F9927B751B0F0E1F0660F771FA5
:1007A000881F991F1AF0BA95C9F714C0B13091F09B
:1007B0000E949E04B1E008950C949E04672F782F48
:1007C0008827B85F39F0B93FCCF386957795679560
:1007D000B395D9F73EF490958095709561957F4FCC
:1007E0008F4F9F4F0895E89409C097FB3EF4909572
:1007F0008095709561957F4F8F4F9F4F9923A9F0FA
:10080000F92F96E9BB279395F69587957795679588
:10081000B795F111F8CFFAF4BB0F11F460FF1BC0CC
:100820006F5F7F4F8F4F9F4F16C0882311F096E95F
:1008300011C0772321F09EE8872F762F05C066230D
:1008400071F096E8862F70E060E02AF09A95660FC6
:10085000771F881FDAF7880F9695879597F908957F
:10086000990F0008550FAA0BE0E8FEEF16161706C1
:10087000E807F907C0F012161306E407F50798F029
:10088000621B730B840B950B39F40A2661F0232B42
:10089000242B252B21F408950A2609F4A140A695BE
:1008A0008FEF811D811D089597F99F6780E870E0A3
:1008B00060E008959FEF80EC089500240A941616D6
:1008C000170618060906089500240A94121613063E
:1008D000140605060895092E0394000C11F48823CC
:1008E00052F0BB0F40F4BF2B11F460FF04C06F5FE8
:1008F0007F4F8F4F9F4F089557FD9058440F551FBE
:1009000059F05F3F71F04795880F97FB991F61F091
:100910009F3F79F087950895121613061406551F08
:10092000F2CF4695F1DF08C0161617061806991F74
:10093000F1CF86957105610508940895E894BB2769
:1009400066277727CB0197F908950E94B8040C9485
:100950006B040E945D0438F00E94640420F095232B
:1009600011F00C9454040C945A0411240C949F0418
:100970000E947C0470F3959FC1F3950F50E0551FC2
:10098000629FF001729FBB27F00DB11D639FAA27E4
:10099000F00DB11DAA1F649F6627B00DA11D661F33
:1009A000829F2227B00DA11D621F739FB00DA11D54
:1009B000621F839FA00D611D221F749F3327A00D0E
:1009C000611D231F849F600D211D822F762F6A2FAA
:1009D00011249F5750409AF0F1F088234AF0EE0F0F
:1009E000FF1FBB1F661F771F881F91505040A9F73C
:1009F0009E3F510580F00C9454040C949F045F3F7B
:100A0000E4F3983ED4F3869577956795B795F79577
:100A1000E7959F5FC1F7FE2B880F911D96958795EF
:100A200097F9089597FB072E16F4009407D077FDE9
:100A300009D00E94260507FC05D03EF490958195CB
:100A40009F4F0895709561957F4F0895AA1BBB1B1A
:100A500051E107C0AA1FBB1FA617B70710F0A61BBE
:100A6000B70B881F991F5A95A9F780959095BC01DF
:080A7000CD010895F894FFCFB9
:00000001FF
