:100000000C9462000C948A000C948A000C948A0070
:100010000C948A000C948A000C948A000C948A0038
:100020000C948A000C948A000C948A000C948A0028
:100030000C948A000C948A000C948A000C948A0018
:100040000C9436020C948A000C94A6020C94800244
:100050000C948A000C948A000C948A000C948A00F8
:100060000C948A000C948A000000000023002600F3
:10007000290000000000240027002A0000000000E2
:10008000250028002B0004040404040404040202D4
:100090000202020203030303030301020408102007
:1000A0004080010204081020010204081020000012
:1000B0000008000201000003040700000000000027
:1000C0000000440411241FBECFEFD8E0DEBFCDBF37
:1000D00011E0A0E0B1E0E6E3F9E002C005900D9286
:1000E000A833B107D9F721E0A8E3B1E001C01D9220
:1000F000AE3DB207E1F710E0C2E6D0E004C02197C0
:10010000FE010E949304C136D107C9F70E94D802AC
:100110000C9499040C940000833081F028F4813011
:1001200099F08230A9F008958730A9F08830C9F09D
:100130008430B1F4809180008F7D03C08091800075
:100140008F7780938000089584B58F7784BD08955C
:1001500084B58F7DFBCF8091B0008F778093B00006
:1001600008958091B0008F7DF9CF1F93CF93DF93D7
:10017000E4EBF0E09491E0EAF0E0D491ECE8F0E018
:10018000C491CC23B9F0182F992319F0892F0E941C
:100190008C00EC2FF0E0EE0FFF1FE458FF4FA5910D
:1001A000B4918FB7F894EC91111108C0D095DE236B
:1001B000DC938FBFDF91CF911F910895DE2BF8CF95
:1001C000CF93DF9390E0FC01E656FF4F24918A57CE
:1001D0009F4FFC0184918823C9F090E0880F991FFC
:1001E000FC01EE58FF4FA591B491FC01E458FF4F7C
:1001F000C591D49161110DC09FB7F8948C91209551
:1002000082238C938881282328839FBFDF91CF91FD
:100210000895623051F49FB7F8943C91822F8095F5
:1002200083238C93E8812E2BEFCF8FB7F894EC913A
:100230002E2B2C938FBFEACFAF92BF92CF92DF923B
:10024000EF92FF920F931F93CF93DF936C017B018B
:100250008B01040F151FEB015E01AE18BF08C0171C
:10026000D10759F06991D601ED91FC910190F0818F
:10027000E02DC6010995892B79F7C501DF91CF9152
:100280001F910F91FF90EF90DF90CF90BF90AF90B4
:100290000895FC01538D448D252F30E0842F90E08C
:1002A000821B930B541710F0CF9608950197089571
:1002B000FC01918D828D981761F0A28DAE0FBF2F3A
:1002C000B11D5D968C91928D9F5F9F73928F90E090
:1002D00008958FEF9FEF0895FC01918D828D9817FF
:1002E00031F0828DE80FF11D858D90E008958FEF3C
:1002F0009FEF0895FC01918D228D892F90E0805C05
:100300009F4F821B91098F739927089581E491E093
:100310000E947A0121E0892B09F420E0822F0895C0
:1003200080E090E0892B29F00E94860181110C94D5
:1003300000000895FC01A48DA80FB92FB11DA35A88
:10034000BF4F2C91848D90E001968F739927848FF5
:10035000A689B7892C93A089B1898C918370806418
:100360008C93938D848D981306C00288F389E02DB9
:1003700080818F7D80830895EF92FF920F931F936A
:10038000CF93DF93EC0181E0888F9B8D8C8D981348
:100390001AC0E889F989808185FF15C09FB7F89454
:1003A000EE89FF896083E889F989808183708064A0
:1003B00080839FBF81E090E0DF91CF911F910F91EB
:1003C000FF90EF900895F62E0B8D10E00F5F1F4FFA
:1003D0000F731127E02E8C8D8E110CC00FB607FC09
:1003E000FACFE889F989808185FFF5CFCE010E9497
:1003F0009A01F1CFEB8DEC0FFD2FF11DE35AFF4F6A
:10040000F0829FB7F8940B8FEA89FB898081806224
:10041000CFCFCF93DF93EC01888D8823B9F0AA89E1
:10042000BB89E889F9898C9185FD03C0808186FDAF
:100430000DC00FB607FCF7CF8C9185FFF2CF8081FE
:1004400085FFEDCFCE010E949A01E9CFDF91CF91D8
:100450000895FC0101900020E9F73197AF01481B96
:10046000590BBC0181E491E00C941C011F920F9286
:100470000FB60F9211242F933F938F939F93AF93B7
:10048000BF9380913D0190913E01A0913F01B091B9
:10049000400130913C0123E0230F2D3758F50196A0
:1004A000A11DB11D20933C0180933D0190933E011D
:1004B000A0933F01B09340018091380190913901A0
:1004C000A0913A01B0913B010196A11DB11D80930D
:1004D000380190933901A0933A01B0933B01BF9149
:1004E000AF919F918F913F912F910F900FBE0F90E1
:1004F0001F90189526E8230F0296A11DB11DD2CF9B
:100500001F920F920FB60F9211242F933F934F9388
:100510005F936F937F938F939F93AF93BF93EF936B
:10052000FF9381E491E00E949A01FF91EF91BF91C6
:10053000AF919F918F917F916F915F914F913F917B
:100540002F910F900FBE0F901F9018951F920F9232
:100550000FB60F9211242F938F939F93EF93FF93D6
:10056000E0915101F09152018081E0915701F091A9
:10057000580182FD1BC0908180915A018F5F8F735B
:1005800020915B01821741F0E0915A01F0E0EF5BAE
:10059000FE4F958F80935A01FF91EF919F918F911C
:1005A0002F910F900FBE0F901F9018958081F4CF60
:1005B000CF93DF93CDB7DEB7A1970FB6F894DEBF28
:1005C0000FBECDBF789484B5826084BD84B5816050
:1005D00084BD85B5826085BD85B5816085BD80910E
:1005E0006E00816080936E00109281008091810086
:1005F000826080938100809181008160809381007E
:10060000809180008160809380008091B10084603F
:100610008093B1008091B00081608093B0008091A0
:100620007A00846080937A0080917A00826080935F
:100630007A0080917A00816080937A0080917A00BC
:10064000806880937A001092C100E0915101F0918E
:10065000520182E08083E0914D01F0914E011082C1
:10066000E0914F01F09150018FEC8083109259017D
:10067000E0915501F091560186E08083E0915301AD
:10068000F0915401808180618083E0915301F09169
:100690005401808188608083E0915301F09154017E
:1006A000808180688083E0915301F09154018081C2
:1006B0008F7D808362E088E00E94E00061E086E058
:1006C0000E94E00060E08EE00E94E000222423947B
:1006D000312C3AE0432E512C612C712C40E0842EB9
:1006E00040E0942EE6EBF0E08491E2EAF0E0049141
:1006F000EEE8F0E01491112309F47CC081110E940E
:100700008C00E12FF0E0EE0FFF1FE859FF4FA5919D
:10071000B4918C91082391E080E009F490E0092FD6
:10072000182FF0E4F0937C0080917A00806480932D
:100730007A0080917A0086FDFCCFE0907800F090FE
:100740007900F7FE03C083E0E80EF11CF594E7940E
:10075000F594E794970150E040E019A26E0191E210
:10076000C90ED11CCA01B901A30192010E947104F2
:10077000605DF60162936F01211531054105510558
:1007800089F7309719F0CF010E94290282E191E0A8
:100790000E942902012B21F4C1018A199B095C01E5
:1007A000EA9C8001EB9C100DFA9C100D112461E075
:1007B00086E00E94E00001151105F9F480E00E9436
:1007C000B50085E191E0A114B10411F484E291E057
:1007D0000E94290282E191E00E9429028114910481
:1007E00009F480CF0E948601882309F47BCF0E9400
:1007F000000078CF10E000E094CF0F3F110511F416
:1008000081E0DDCFE4EBF0E08491833019F140F436
:100810008130B1F08230C9F0003811058CF7CECFAD
:10082000873011F1883041F18430B1F78091800038
:1008300080628093800010938B0000938A00C1CF68
:1008400084B5806884BD07BDBCCF84B5806284BD9B
:1008500008BDB7CF8091800080688093800010939E
:10086000890000938800ADCF8091B00080688093AC
:10087000B0000093B300A5CF8091B0008062809358
:10088000B0000093B4009DCFE1E4F1E01382128246
:1008900088EE93E0A0E0B0E084839583A683B783DD
:1008A00084E091E09183808385EC90E09587848754
:1008B00084EC90E09787868780EC90E0918B808B2A
:1008C00081EC90E0938B828B82EC90E0958B848B13
:1008D00086EC90E0978B868B118E128E138E148E81
:1008E0000895A1E21A2EAA1BBB1BFD010DC0AA1F71
:1008F000BB1FEE1FFF1FA217B307E407F50720F089
:10090000A21BB30BE40BF50B661F771F881F991F03
:100910001A9469F760957095809590959B01AC014C
:10092000BD01CF010895EE0FFF1F0590F491E02D5A
:060930000994F894FFCFCA
:1009360000000000BC011C01490109027A015801AE
:100946006C010D0A00427574746F6E2070726573C7
:1009560073656400427574746F6E206E6F742070D8
:08096600726573736564000003
:00000001FF
